897001210000L1610701120016FED                               121TBDFED         18011801  000000000163844000000000000000       2479274     GBS Federal Bill                                                                                                                                                                          F                                           12                                 9210068                                                                                                                                                                                   PS006                                                                                                                                                                                                         9034              190050040                                              YB 011218                       9200000                                                                                             
897001210000L1610701120016FED                               121TBDFED         18011801  000000000053296000000000000000       2479298     GBS Federal Bill                                                                                                                                                                          F                                           12                                 9350605                                                                                                                                                                                   PS0HJ                                                                                                                                                                                                         9005              800100013                                              YA 011218                       9200000                                                                                             
897001210000L1610701120016FED                               121TBDFED         18011801  000000000160016000000000000000       2479304     GBS Federal Bill                                                                                                                                                                          F                                           12                                 9309304                                                                                                                                                                                   PS0HJ                                                                                                                                                                                                         9034              190050040                                              YB 011218                       9200000                                                                                             
897001210000L1635603000000FED                               121TBDFED         18011801  00000000000708M000000000000000       2479274     GBS Federal Bill                                                                                                                                                                          F                                           12                                 9210068                                                                                                                                                          W6Q5                     PS006                                                                                                                                                                                                         9034              190050040                                              YB 011218                       9200000                                                                                             
897001210000L1635603000000FED                               121TBDFED         18011801  00000000015583R000000000000000       2479274     GBS Federal Bill                                                                                                                                                                          F                                           12                                 9210068                                                                                                                                                          W6Q5                     PS006                                                                                                                                                                                                         9034              190050040                                              YB 011218                       9200000                                                                                             
897001210000L1635603000000FED                               121TBDFED         18011801  00000000000092J000000000000000       2479274     GBS Federal Bill                                                                                                                                                                          F                                           12                                 9210068                                                                                                                                                          W6Q5                     PS006                                                                                                                                                                                                         9034              190050040                                              YB 011218                       9200000                                                                                             
897001210000L1635603000000FED                               121TBDFED         18011801  00000000005329O000000000000000       2479298     GBS Federal Bill                                                                                                                                                                          F                                           12                                 9350605                                                                                                                                                          144F                     PS0HJ                                                                                                                                                                                                         9005              800100013                                              YA 011218                       9200000                                                                                             
897001210000L1635603000000FED                               121TBDFED         18011801  00000000000677Q000000000000000       2479304     GBS Federal Bill                                                                                                                                                                          F                                           12                                 9309304                                                                                                                                                          JPM0                     PS0HJ                                                                                                                                                                                                         9034              190050040                                              YB 011218                       9200000                                                                                             
897001210000L1635603000000FED                               121TBDFED         18011801  00000000000242}000000000000000       2479304     GBS Federal Bill                                                                                                                                                                          F                                           12                                 9309304                                                                                                                                                          JPM0                     PS0HJ                                                                                                                                                                                                         9034              190050040                                              YB 011218                       9200000                                                                                             
897001210000L1635603000000FED                               121TBDFED         18011801  00000000000261K000000000000000       2479304     GBS Federal Bill                                                                                                                                                                          F                                           12                                 9309304                                                                                                                                                          JPM0                     PS0HJ                                                                                                                                                                                                         9034              190050040                                              YB 011218                       9200000                                                                                             
897001210000L1635603000000FED                               121TBDFED         18011801  00000000000158K000000000000000       2479304     GBS Federal Bill                                                                                                                                                                          F                                           12                                 9309304                                                                                                                                                          JPM0                     PS0HJ                                                                                                                                                                                                         9034              190050040                                              YB 011218                       9200000                                                                                             
897001210000L1635603000000FED                               121TBDFED         18011801  00000000004382P000000000000000       2479304     GBS Federal Bill                                                                                                                                                                          F                                           12                                 9309304                                                                                                                                                          JPM1                     PS0HJ                                                                                                                                                                                                         9034              190050040                                              YB 011218                       9200000                                                                                             
897001210000L1635603000000FED                               121TBDFED         18011801  00000000001564O000000000000000       2479304     GBS Federal Bill                                                                                                                                                                          F                                           12                                 9309304                                                                                                                                                          JPM1                     PS0HJ                                                                                                                                                                                                         9034              190050040                                              YB 011218                       9200000                                                                                             
897001210000L1635603000000FED                               121TBDFED         18011801  00000000001689}000000000000000       2479304     GBS Federal Bill                                                                                                                                                                          F                                           12                                 9309304                                                                                                                                                          JPM1                     PS0HJ                                                                                                                                                                                                         9034              190050040                                              YB 011218                       9200000                                                                                             
897001210000L1635603000000FED                               121TBDFED         18011801  00000000001023K000000000000000       2479304     GBS Federal Bill                                                                                                                                                                          F                                           12                                 9309304                                                                                                                                                          JPM1                     PS0HJ                                                                                                                                                                                                         9034              190050040                                              YB 011218                       9200000                                                                                             
897001210000L1635603000000FED                               121TBDFED         18011801  00000000000677O000000000000000       2479304     GBS Federal Bill                                                                                                                                                                          F                                           12                                 9309304                                                                                                                                                          JPM2                     PS0HJ                                                                                                                                                                                                         9034              190050040                                              YB 011218                       9200000                                                                                             
897001210000L1635603000000FED                               121TBDFED         18011801  00000000000241R000000000000000       2479304     GBS Federal Bill                                                                                                                                                                          F                                           12                                 9309304                                                                                                                                                          JPM2                     PS0HJ                                                                                                                                                                                                         9034              190050040                                              YB 011218                       9200000                                                                                             
897001210000L1635603000000FED                               121TBDFED         18011801  00000000000261J000000000000000       2479304     GBS Federal Bill                                                                                                                                                                          F                                           12                                 9309304                                                                                                                                                          JPM2                     PS0HJ                                                                                                                                                                                                         9034              190050040                                              YB 011218                       9200000                                                                                             
897001210000L1635603000000FED                               121TBDFED         18011801  00000000000158K000000000000000       2479304     GBS Federal Bill                                                                                                                                                                          F                                           12                                 9309304                                                                                                                                                          JPM2                     PS0HJ                                                                                                                                                                                                         9034              190050040                                              YB 011218                       9200000                                                                                             
897001210000L1635603000000FED                               121TBDFED         18011801  00000000002360N000000000000000       2479304     GBS Federal Bill                                                                                                                                                                          F                                           12                                 9309304                                                                                                                                                          JPM3                     PS0HJ                                                                                                                                                                                                         9034              190050040                                              YB 011218                       9200000                                                                                             
897001210000L1635603000000FED                               121TBDFED         18011801  00000000000842P000000000000000       2479304     GBS Federal Bill                                                                                                                                                                          F                                           12                                 9309304                                                                                                                                                          JPM3                     PS0HJ                                                                                                                                                                                                         9034              190050040                                              YB 011218                       9200000                                                                                             
897001210000L1635603000000FED                               121TBDFED         18011801  00000000000909P000000000000000       2479304     GBS Federal Bill                                                                                                                                                                          F                                           12                                 9309304                                                                                                                                                          JPM3                     PS0HJ                                                                                                                                                                                                         9034              190050040                                              YB 011218                       9200000                                                                                             
897001210000L1635603000000FED                               121TBDFED         18011801  00000000000551K000000000000000       2479304     GBS Federal Bill                                                                                                                                                                          F                                           12                                 9309304                                                                                                                                                          JPM3                     PS0HJ                                                                                                                                                                                                         9034              190050040                                              YB 011218                       9200000                                                                                             